{
  "_format": "hh-sol-artifact-1",
  "contractName": "Certificate",
  "sourceName": "contracts/Certificate.sol",
  "abi": [
    {
      "inputs": [],
      "stateMutability": "nonpayable",
      "type": "constructor"
    },
    {
      "inputs": [
        {
          "internalType": "uint16",
          "name": "",
          "type": "uint16"
        }
      ],
      "name": "certi",
      "outputs": [
        {
          "internalType": "string",
          "name": "name",
          "type": "string"
        },
        {
          "internalType": "string",
          "name": "course",
          "type": "string"
        },
        {
          "internalType": "string",
          "name": "grade",
          "type": "string"
        },
        {
          "internalType": "string",
          "name": "date",
          "type": "string"
        }
      ],
      "stateMutability": "view",
      "type": "function"
    },
    {
      "inputs": [
        {
          "internalType": "uint16",
          "name": "_id",
          "type": "uint16"
        },
        {
          "internalType": "string",
          "name": "_name",
          "type": "string"
        },
        {
          "internalType": "string",
          "name": "_course",
          "type": "string"
        },
        {
          "internalType": "string",
          "name": "_grade",
          "type": "string"
        },
        {
          "internalType": "string",
          "name": "_date",
          "type": "string"
        }
      ],
      "name": "issueCertificate",
      "outputs": [],
      "stateMutability": "nonpayable",
      "type": "function"
    }
  ],
  "bytecode": "0x6080604052348015600f57600080fd5b50336000806101000a81548173ffffffffffffffffffffffffffffffffffffffff021916908373ffffffffffffffffffffffffffffffffffffffff160217905550610b1c8061005f6000396000f3fe608060405234801561001057600080fd5b50600436106100365760003560e01c80630fddcaec1461003b5780634ab823c41461006e575b600080fd5b61005560048036038101906100509190610454565b61008a565b6040516100659493929190610511565b60405180910390f35b610088600480360381019061008391906106a7565b6102da565b005b60016020528060005260406000206000915090508060000180546100ad906107c1565b80601f01602080910402602001604051908101604052809291908181526020018280546100d9906107c1565b80156101265780601f106100fb57610100808354040283529160200191610126565b820191906000526020600020905b81548152906001019060200180831161010957829003601f168201915b50505050509080600101805461013b906107c1565b80601f0160208091040260200160405190810160405280929190818152602001828054610167906107c1565b80156101b45780601f10610189576101008083540402835291602001916101b4565b820191906000526020600020905b81548152906001019060200180831161019757829003601f168201915b5050505050908060020180546101c9906107c1565b80601f01602080910402602001604051908101604052809291908181526020018280546101f5906107c1565b80156102425780601f1061021757610100808354040283529160200191610242565b820191906000526020600020905b81548152906001019060200180831161022557829003601f168201915b505050505090806003018054610257906107c1565b80601f0160208091040260200160405190810160405280929190818152602001828054610283906107c1565b80156102d05780601f106102a5576101008083540402835291602001916102d0565b820191906000526020600020905b8154815290600101906020018083116102b357829003601f168201915b5050505050905084565b60008054906101000a900473ffffffffffffffffffffffffffffffffffffffff1673ffffffffffffffffffffffffffffffffffffffff163373ffffffffffffffffffffffffffffffffffffffff1614610368576040517f08c379a000000000000000000000000000000000000000000000000000000000815260040161035f9061083e565b60405180910390fd5b604051806080016040528085815260200184815260200183815260200182815250600160008761ffff1661ffff16815260200190815260200160002060008201518160000190816103b99190610a14565b5060208201518160010190816103cf9190610a14565b5060408201518160020190816103e59190610a14565b5060608201518160030190816103fb9190610a14565b509050505050505050565b6000604051905090565b600080fd5b600080fd5b600061ffff82169050919050565b6104318161041a565b811461043c57600080fd5b50565b60008135905061044e81610428565b92915050565b60006020828403121561046a57610469610410565b5b60006104788482850161043f565b91505092915050565b600081519050919050565b600082825260208201905092915050565b60005b838110156104bb5780820151818401526020810190506104a0565b60008484015250505050565b6000601f19601f8301169050919050565b60006104e382610481565b6104ed818561048c565b93506104fd81856020860161049d565b610506816104c7565b840191505092915050565b6000608082019050818103600083015261052b81876104d8565b9050818103602083015261053f81866104d8565b9050818103604083015261055381856104d8565b9050818103606083015261056781846104d8565b905095945050505050565b600080fd5b600080fd5b7f4e487b7100000000000000000000000000000000000000000000000000000000600052604160045260246000fd5b6105b4826104c7565b810181811067ffffffffffffffff821117156105d3576105d261057c565b5b80604052505050565b60006105e6610406565b90506105f282826105ab565b919050565b600067ffffffffffffffff8211156106125761061161057c565b5b61061b826104c7565b9050602081019050919050565b82818337600083830152505050565b600061064a610645846105f7565b6105dc565b90508281526020810184848401111561066657610665610577565b5b610671848285610628565b509392505050565b600082601f83011261068e5761068d610572565b5b813561069e848260208601610637565b91505092915050565b600080600080600060a086880312156106c3576106c2610410565b5b60006106d18882890161043f565b955050602086013567ffffffffffffffff8111156106f2576106f1610415565b5b6106fe88828901610679565b945050604086013567ffffffffffffffff81111561071f5761071e610415565b5b61072b88828901610679565b935050606086013567ffffffffffffffff81111561074c5761074b610415565b5b61075888828901610679565b925050608086013567ffffffffffffffff81111561077957610778610415565b5b61078588828901610679565b9150509295509295909350565b7f4e487b7100000000000000000000000000000000000000000000000000000000600052602260045260246000fd5b600060028204905060018216806107d957607f821691505b6020821081036107ec576107eb610792565b5b50919050565b7f556e617574686f72697365642061636365737300000000000000000000000000600082015250565b600061082860138361048c565b9150610833826107f2565b602082019050919050565b600060208201905081810360008301526108578161081b565b9050919050565b60008190508160005260206000209050919050565b60006020601f8301049050919050565b600082821b905092915050565b6000600883026108c07fffffffffffffffffffffffffffffffffffffffffffffffffffffffffffffffff82610883565b6108ca8683610883565b95508019841693508086168417925050509392505050565b6000819050919050565b6000819050919050565b600061091161090c610907846108e2565b6108ec565b6108e2565b9050919050565b6000819050919050565b61092b836108f6565b61093f61093782610918565b848454610890565b825550505050565b600090565b610954610947565b61095f818484610922565b505050565b5b818110156109835761097860008261094c565b600181019050610965565b5050565b601f8211156109c8576109998161085e565b6109a284610873565b810160208510156109b1578190505b6109c56109bd85610873565b830182610964565b50505b505050565b600082821c905092915050565b60006109eb600019846008026109cd565b1980831691505092915050565b6000610a0483836109da565b9150826002028217905092915050565b610a1d82610481565b67ffffffffffffffff811115610a3657610a3561057c565b5b610a4082546107c1565b610a4b828285610987565b600060209050601f831160018114610a7e5760008415610a6c578287015190505b610a7685826109f8565b865550610ade565b601f198416610a8c8661085e565b60005b82811015610ab457848901518255600182019150602085019450602081019050610a8f565b86831015610ad15784890151610acd601f8916826109da565b8355505b6001600288020188555050505b50505050505056fea264697066735822122053753aaac11ad7902233930d564cf134789e4eb7ba90449c5a25ef986ea1009d64736f6c634300081c0033",
  "linkReferences": {},
  "deployedLinkReferences": {}
}